S0240000496E746572666163696E675F4D6F64756C65735F414D49545F4632302E73726563CD
S11300000C942A000C9447000C9447000C9447006D
S11300100C9447000C9447000C9447000C947E0207
S11300200C9447000C9447000C9447000C94470030
S11300300C9447000C9447000C9447000C94470020
S11300400C9447000C9447000C9447000C94470010
S11300500C94470011241FBECFE5D8E0DEBFCDBF0E
S113006010E0A0E6B0E0E8EBF7E002C005900D92E6
S1130070A036B107D9F720E0A0E6B0E001C01D9298
S1130080A439B207E1F70E9401020C94DA030C943C
S11300900000442319F04130C9F10895813091F0F2
S11300A028F08230D9F0833029F108952AB381E011
S11300B090E002C0880F991F6A95E2F78095822329
S11300C08ABB089527B381E090E002C0880F991F8E
S11300D06A95E2F78095822387BB089524B381E073
S11300E090E002C0880F991F6A95E2F780958223F9
S11300F084BB089521B381E090E002C0880F991F6A
S11301006A95E2F78095822381BB0895813089F056
S113011028F08230C9F0833011F108952AB381E0C8
S113012090E002C0880F991F6A95E2F7822B8ABB80
S1130130089527B381E090E002C0880F991F6A9563
S1130140E2F7822B87BB089524B381E090E002C0DC
S1130150880F991F6A95E2F7822B84BB089521B317
S113016081E090E002C0880F991F6A95E2F7822B24
S113017081BB0895442319F04130C9F108958130B9
S113018091F028F08230D9F0833029F108952BB30F
S113019081E090E002C0880F991F6A95E2F780958C
S11301A082238BBB089528B381E090E002C0880FBE
S11301B0991F6A95E2F78095822388BB089525B339
S11301C081E090E002C0880F991F6A95E2F780955C
S11301D0822385BB089522B381E090E002C0880F9A
S11301E0991F6A95E2F78095822382BB0895813036
S11301F089F028F08230C9F0833011F108952BB3CF
S113020081E090E002C0880F991F6A95E2F7822B83
S11302108BBB089528B381E090E002C0880F991F3A
S11302206A95E2F7822B88BB089525B381E090E0BC
S113023002C0880F991F6A95E2F7822B85BB089547
S113024022B381E090E002C0880F991F6A95E2F71B
S1130250822B82BB0895CF93C82F40E061E081E0F8
S11302600E94BA0040E062E081E00E94BA0040E0EF
S113027063E081E00E94BA008BB39C2F907F8F7063
S1130280892B8BBB41E063E081E00E94BA008FE9D7
S11302909FE00197F1F700C0000040E063E081E0D7
S11302A00E94BA002BB330E1C39FC0011124922FE6
S11302B09F70892B8BBB41E063E081E00E94BA0010
S11302C08FE99FE00197F1F700C0000040E063E090
S11302D081E00E94BA008FE39FE10197F1F700C02B
S11302E00000CF91089541E061E081E00E9449005F
S11302F041E062E081E00E94490041E063E081E086
S11303000E94490041E064E080E00E94490041E02D
S113031065E080E00E94490041E066E080E00E94E0
S1130320490041E067E080E00E9449002FEF83ED3F
S113033090E3215080409040E1F700C0000082E04B
S11303400E942B0183E30E942B0182E30E942B0174
S113035088E20E942B018CE00E942B0181E00E9424
S11303602B0186E00E942B01089581E00E942B015D
S11303700895CF93DF939C01FB01DC011196CD918D
S1130380DC911297D383C2838C819D81958384836E
S11303908C819D81DC0113967C936E9312977D83EF
S11303A06C8331872087F90180818F5F8083DF919F
S11303B0CF910895CF93DF93FC01A085B185C281CD
S11303C0D381848195819D838C83C481D5818281ED
S11303D093819B838A8311968D919C911297E81740
S11303E0F90731F48481958112969C938E93119729
S11303F0118610868C9181508C938C91DF91CF91D2
S113040008950E9473010E94B5010E94CE030E94C8
S113041081020E94D60390E08133910531F481E09A
S11304200E9488020E94B501F4CF8233910521F421
S113043082E00E948802EDCFC09759F780E00E94C5
S11304408802E7CF0F920FB6F8940F921F921124EF
S11304502F923F924F925F926F927F928F929F92D0
S1130460AF92BF92CF92DF92EF92FF920F931F93BE
S11304702F933F934F935F936F937F938F939F93A8
S1130480AF93BF93CF93DF93EF93FF93A091920029
S1130490B09193000DB60D920EB60D920E94A90272
S11304A081110E946803A0919200B0919300CD91B4
S11304B0CDBFDD91DEBFFF91EF91DF91CF91BF9171
S11304C0AF919F918F917F916F915F914F913F91E8
S11304D02F911F910F91FF90EF90DF90CF90BF90DD
S11304E0AF909F908F907F906F905F904F903F90D0
S11304F02F901F900F900FBE0F9008950E9422021C
S11305001895BC9ABD9ABE98BF9A83E58DB9089593
S1130510C4988FB9779BFECF0895E0916C00F09159
S11305206D008081811107C08FEF9FEF909362006F
S1130530809361000895E0916C00F0916D00058056
S1130540F681E02D80819181909362008093610017
S11305500895CF92DF92EF92FF920F931F93CF9360
S1130560DF938091600081119FC0E0906800F0905B
S113057069008FEFE81AF80AF0926900E0926800C7
S1130580E114F104B9F480916C0090916D00209114
S11305906A0030916B0030936D0020936C0090934F
S11305A06B0080936A00809163008F5F8093630087
S11305B00E948D028091610090916200E816F90614
S11305C010F4D12C53C0D12CCC24C394E0916C00F2
S11305D0F0916D008081811107C08FEF9FEF9093A0
S11305E062008093610042C0E0916C00F0916D0064
S11305F00580F681E02DC681D7818A819B81E8162A
S1130600F90628F490936200809361002FC08E0154
S11306100E5F1F4FC8010E94DA018C899D89892BC6
S113062021F0CE010C960E94DA018E899091670028
S1130630981710F48093670090E09C01220F331FF9
S1130640220F331F220F331F820F931FB8018259C9
S11306509F4F0E94B901E0919200F09193009E890E
S11306608689981708F4B2CFDC2CB0CFE0919200C1
S1130670F0919300868990E0FC01EE0FFF1FEE0FCE
S1130680FF1FEE0FFF1F8E0F9F1FFC01E259FF4F4C
S11306908081823010F0DD24D3948091640088231B
S11306A069F0DD24D3940AC08091650090916600BE
S11306B001969093660080936500D12C8D2DDF9177
S11306C0CF911F910F91FF90EF90DF90CF900895FD
S11306D080916000882321F081E080936400089574
S11306E01092640020916700822F90E0FC01EE0FCD
S11306F0FF1FEE0FFF1FEE0FFF1FE80FF91FE25958
S1130700FF4F3081311111C02150822F90E0FC0144
S1130710EE0FFF1FEE0FFF1FEE0FFF1FE80FF91F75
S1130720E259FF4F3081332379F3AC01440F551F55
S1130730440F551F440F551F480F591FDA01A25982
S1130740BF4F1196ED91FC9112970280F381E02D39
S11307501296FC93EE9311974F585F4FE417F507E9
S113076029F442815381FD0152834183FC01EE0F40
S1130770FF1FEE0FFF1FEE0FFF1F8E0F9F1FFC01C9
S1130780E259FF4F0180F281E02D86819781909399
S113079093008093920020936700089588E18AB9BA
S11307A086E880BD87E689B910BC08955F9BFECFBB
S10B07B08CB10895F894FFCF09
S9030000FC
