S0250000496E746572666163696E675F6D6F64756C65735F5F414D49545F4632302E737265634D
S11300000C942A000C9447000C9447000C9447006D
S11300100C9447000C9447000C9447000C94470040
S11300200C9447000C9447000C9447000C94470030
S11300300C9447000C9447000C9447000C94470020
S11300400C9447000C9447000C9447000C94470010
S11300500C94470011241FBECFE5D8E0DEBFCDBF0E
S113006010E0A0E6B0E0EAEFF2E002C005900D92E5
S1130070A036B107D9F720E0A0E6B0E001C01D9298
S1130080A036B207E1F70E942B010C947B010C947B
S11300900000442319F04130C9F10895813091F0F2
S11300A028F08230D9F0833029F108952AB381E011
S11300B090E002C0880F991F6A95E2F78095822329
S11300C08ABB089527B381E090E002C0880F991F8E
S11300D06A95E2F78095822387BB089524B381E073
S11300E090E002C0880F991F6A95E2F780958223F9
S11300F084BB089521B381E090E002C0880F991F6A
S11301006A95E2F78095822381BB0895813089F056
S113011028F08230C9F0833011F108952AB381E0C8
S113012090E002C0880F991F6A95E2F7822B8ABB80
S1130130089527B381E090E002C0880F991F6A9563
S1130140E2F7822B87BB089524B381E090E002C0DC
S1130150880F991F6A95E2F7822B84BB089521B317
S113016081E090E002C0880F991F6A95E2F7822B24
S113017081BB0895442319F04130C9F108958130B9
S113018091F028F08230D9F0833029F108952BB30F
S113019081E090E002C0880F991F6A95E2F780958C
S11301A082238BBB089528B381E090E002C0880FBE
S11301B0991F6A95E2F78095822388BB089525B339
S11301C081E090E002C0880F991F6A95E2F780955C
S11301D0822385BB089522B381E090E002C0880F9A
S11301E0991F6A95E2F78095822382BB0895813036
S11301F089F028F08230C9F0833011F108952BB3CF
S113020081E090E002C0880F991F6A95E2F7822B83
S11302108BBB089528B381E090E002C0880F991F3A
S11302206A95E2F7822B88BB089525B381E090E0BC
S113023002C0880F991F6A95E2F7822B85BB089547
S113024022B381E090E002C0880F991F6A95E2F71B
S1130250822B82BB08950E9468010E9444010E947F
S113026056010E947701813019F40E944A01F9CFA6
S1130270823019F40E945C01F4CF8111F2CF0E9404
S113028050010E946201EDCF41E062E082E00E94F1
S11302904900089541E062E082E00E94BA000895B6
S11302A040E062E082E00E94BA00089541E063E029
S11302B080E00E944900089541E063E080E00E94EC
S11302C0BA00089540E063E080E00E94BA00089517
S11302D087B38F7E87BB87B38F7D87BB87B38064EB
S11302E087BB87B38F7787BB83E48DB90895779BEA
S10D02F0FECF8FB10895F894FFCFFC
S9030000FC
